:100000000200100200373F065B4F666D7D077F6F71
:1000100075A881758801D2B2D22075890190000639
:1000200075A00720200A120065120052D22080F32A
:0F00300012003FC22080ECC22012003FC2893272
:10003F00780475A003E893F59012007AE86003182E
:10004F0080F322780375A006E893F59012007AE802
:0F005F0060031880F322780175A005E893F590EF
:0F006E0012007AE860031880F3227F0E758CFF72
:0D007D00758AC0D28C308DFDC28CC28D22E0
:00000001FF
