:0600000002005702001689
:01000B0032C2
:100013000200197F0032C2AAC2890E3216B6FF0946
:10002300760908B8240122111F2218E5F003F5F020
:10003300E6937580FFF59085F080B820ED22E520EA
:10004300700FE521700BE5227007E5237003C2E70B
:0F0053002274012275B80575A887758811C28CB3
:0F00620075890175F0EE90011975220075230064
:0E00710075A0077E007F01D2A8D2AA120092CD
:10007F001200B91200D880F57E0075200575210198
:10008F0002009DD2AA75200075210175A003D2AA86
:10009F00EF60637824112D12010911416058782007
:0F00AF00111FEEC3940550D080E4C2AA75200340
:1000BE0075210075A005EF60417824112D120109FC
:0F00CE00114160367820111F80ECC2AA752007FF
:0E00DD0075210075A0060200EE7F017520055A
:0F00EB00752101EF60F57824112D1201091141E3
:0F00FA0060067820111F80EC7F01227E002222F9
:10010900758CFF758AE0D28C308DFDC28CC28D2230
:0A011900C0F9A4B0999282F880901A
:00000001FF
